:020000040800F2
:1000000068090020456C0008810D0008830D000878
:10001000870D00088B0D00088F0D00080000000000
:10002000000000000000000000000000930D000828
:10003000950D000800000000970D0008990D0008BC
:100040005F6C00085F6C00085F6C0008F1680008D6
:100050005F6C00085F6C00085F6C00085F6C000854
:100060005F6C00085F6C00085F6C00085F6C000844
:100070005F6C00085F6C00085F6C00085F6C000834
:100080005F6C00085F6C00085F6C00085F6C000824
:100090005F6C00085F6C00085F6C00085F6C000814
:1000A0005F6C00085F6C00085F6C00085F6C000804
:1000B0005F6C00085F6C0008BD9900085F6C000869
:1000C0005F6C00085F6C00085F6C00085F6C0008E4
:1000D0005F6C0008B96B00085F6C00085F6C00087B
:1000E0005F6C00085F6C00085F6C00085F6C0008C4
:1000F0005F6C00085F6C00085F6C00085F6C0008B4
:100100005F6C00085F6C00085F6C00085F6C0008A3
:100110005F6C00085F6C00085F6C00085F6C000893
:100120005F6C00085F6C00085F6C00085F6C000883
:1001300000F002F800F06BF80AA090E8000C82448E
:100140008344AAF10107DA4501D100F060F8AFF26B
:10015000090EBAE80F0013F0010F18BFFB1A43F0A5
:1001600001031847FCCA00001CCB00000A444FF0F2
:10017000000C10F8013B13F0070408BF10F8014B06
:100180001D1108BF10F8015B641E05D010F8016B4B
:10019000641E01F8016BF9D113F0080F1EBF10F8AF
:1001A000014BAD1C0C1B09D16D1E58BF01F801CBD2
:1001B000FAD505E014F8016B01F8016B6D1EF9D555
:1001C0009142D6D37047000000230024002500266A
:1001D000103A28BF78C1FBD8520728BF30C148BFAA
:1001E0000B60704764290AF0BD8175290AF0BA8155
:1001F00078290AF0F38163290AF0478373290AF00A
:100200004C83002070471FB51FBD10B510BD0AF00C
:1002100077FB1146FFF7F7FF00F008F80AF095FBAF
:1002200003B4FFF7F2FF03BC06F06CFC1CB501F051
:1002300059F900F0A3FE0422F749002000F035FF31
:1002400042F2107001F0ACF8F3480078F3490870FE
:10025000F1484078F2490870EF488078F149087019
:10026000ED48C078F049087006F0E2FB4FF4A0605A
:1002700006F008FD4FF4E13006F052FC02F052F9AE
:1002800006F0CCF8E9480068E949B0FBF1F0C4B2E7
:10029000E84841682046884706F0CAFA4FF478409B
:1002A000E5490880002010230246462100901E20C8
:1002B00001F07AFA00201023012246210090282024
:1002C00001F072FA00201023022246210090322011
:1002D00001F06AFA002010230322462100903C20FE
:1002E00001F062FA00201023042246210090084603
:1002F00001F05AFAD1A010210B46C822CDE9001016
:100300005A211E2006F056F8CFA00C210B46C82219
:10031000CDE900106E211E2006F04CF8CDA0102172
:100320000B46C822CDE9001096211E2006F042F8A7
:10033000CBA010210B46C822CDE90010BE211E2003
:1003400006F038F8CBA010210B46C822CDE90010EA
:10035000E6211E2006F02EF8CCA010210B46C82264
:10036000CDE900104FF487711E2006F023F8CC4829
:1003700000680AF0ABFC0446102004232246BE218C
:100380000090782005F05EFFC64800680AF09EFCE9
:100390000446102004232246E6210090782005F030
:1003A00051FFC14800680AF091FC04461020042364
:1003B00022464FF487710090782005F043FFBBA0E0
:1003C00010210B46C822CDE900104621104605F049
:1003D000F1FFB9A010210B46C822CDE9001066211B
:1003E000104605F0E7FF19E3B6488078B64909786A
:1003F00088427DD0B3488078B349087010200090BF
:10040000B048828804234621C82005F01BFF102035
:100410000090AC48827902234621F02005F012FFBB
:1004200010200090A748C279022346214FF484701F
:1004300005F008FFA348007A072852D2DFE800F051
:10044000040F1A25303B4600A0A010210B46C822FD
:10045000CDE900105821104605F0ACFF41E09EA008
:1004600010210B46C822CDE900105821104605F096
:10047000A1FF36E09BA010210B46C822CDE9001059
:100480005821104605F096FF2BE099A010210B464D
:10049000C822CDE900105821104605F08BFF20E05E
:1004A00096A010210B46C822CDE900105821104615
:1004B00005F080FF15E094A010210B46C822CDE97D
:1004C00000105821104605F075FF0AE091A0102198
:1004D0000B46C822CDE900105821104605F06AFFEE
:1004E00000BF00BF1020009076480278022300E091
:1004F0001DE06621C82005F0A5FE1020009071487F
:10050000427802236621E02005F09CFE1020009036
:100510006C48827802236621F82005F093FE80481B
:10052000006808B9012000E000207D4908600A2029
:1005300006F0BBFA05F0E2FF7A4908700846007839
:10054000012806D002280FD0032818D004282CD167
:1005500020E075A010210B46C822CDE9001096219D
:10056000822005F027FF21E073A010210B46C8224E
:10057000CDE900109621822005F01CFF16E072A044
:1005800010210B46C822CDE900109621822005F0EB
:1005900011FF0BE070A010210B46C822CDE900101E
:1005A0009621822005F006FF00E000BF00BF5D48F5
:1005B00000786D49096888422AD05A4800786A490B
:1005C000086058480078052804D0062821D007285C
:1005D00020D1EFE0654800680321B0FBF1F201FB98
:1005E0001200401CFA21B1FBF0F420460AF08EFB09
:1005F0002B490860084600680AF068FB0446102092
:1006000004232246BE210090782005F01BFEF2E074
:10061000F2E0ADE0EEE0000010000020000000205D
:100620000200002004000020060000202800002016
:1006300040420F00B4000020480000203230323128
:100640003231323034380000323032342F322F33EE
:10065000300000005761766520466F726D3A0000E9
:10066000416D706C69747564653A202020202020EB
:10067000206D56004672657175656E63793A20206B
:1006800020202020204B487A000000004475747917
:1006900020526174696F3A2020202020202500001C
:1006A000180000201C000020200000202020202016
:1006B0002D20202D2020000020203A20203A20202C
:1006C00000000000360200201700002053756E6401
:1006D00061792020200000004D6F6E646179202038
:1006E00020000000547565736461792020000000CB
:1006F0005765646E657364617900000054687572B3
:100700007364617920000000467269646179202079
:10071000200000005361747572646179200000004C
:10072000800122421500002073696E652077617692
:10073000652020202020000072656374616E676C64
:100740006520776176650000736177746F6F7468F8
:100750002077617665200000747269616E676C6550
:100760002077617665200000240000200C00002026
:100770004FF08041FB4800680AF05BFB08D24FF065
:100780007E51F84800680AF085FBF649086003E0EE
:100790004FF08140F3490860F24800680AF096FA89
:1007A0000446102004232246E6210090782005F01C
:1007B00049FD20E0EC49ED4800680AF0BBFA07D299
:1007C000EB49EA4800680AF013FAE849086002E0D9
:1007D000E748E6490860E54800680AF077FA044609
:1007E0001020042322464FF487710090782005F0F2
:1007F00029FD00E000BF00BFDE480078DE49087038
:1008000008460078002876DD0846007800F09EFE55
:10081000D9480078012802D1D849087068E0D64844
:100820000078022802D1D549087061E0D2480078EA
:10083000032802D1D14908705AE0CF480078042833
:1008400002D1CE49087053E0CB48007806280AD17F
:10085000CB480078401CC0B2C9490870032847DB68
:100860000020087044E0C4480078052820D1C5481D
:100870000078401CC0B2C3490870032801DB002087
:100880000870C048007818B90120BF4908602FE0FF
:10089000BC480078012803D10220BB49086027E04A
:1008A000B8480078022823D10320B74908601FE028
:1008B000B148007807280AD1B4480078401CC0B27B
:1008C000B2490870032813DB0020087010E0AA4822
:1008D000007808280CD10520A8490870AC48007899
:1008E000401CC0B2AA490870032801DB0020087030
:1008F0000020A1490870A7480078A04909788842DB
:1009000017D1A54800789E490978884211D1A3489B
:1009100000789C49097888420BD1A14800789B490E
:100920000978884205D19F4800789949097888421A
:1009300074D0944800789949087091480078964995
:1009400008708E4800789349087090480078944960
:1009500008708F480078934908708A480078924957
:100960000870874800784870844800788870874805
:100970000078C8700422002000F0A8FB42F210703A
:1009800000F00EFD7E48007830B94FF40C708749B6
:10099000088000F061FD14E079480078012806D154
:1009A00040F2EE208149088000F056FD09E07448CD
:1009B0000078022805D14FF48C607C49088000F053
:1009C0004BFD6E48007801281DD100207849087041
:1009D00014E078487649097830F811006A490968C6
:1009E000B0FBF1F000EB00407349714A127841F816
:1009F00022006F480078401C6D4908706C480078F0
:100A000020280BDAE5E75D480078022865D15F48C9
:100A10000078F0B900206649087015E0A1E0674849
:100A20006349097830F8110057490968B0FBF1F0C3
:100A300000EB004160485E4A127840F822105C48A2
:100A40000078401C5A490870594800782028D8DAA4
:100A5000E5E74E48007801281DD100205449087070
:100A600014E057485249097830F81100464909689E
:100A7000B0FBF1F000EB00404F494D4A127841F8CD
:100A800022004B480078401C4949087048480078CB
:100A90002028B6DAE5E73D480078022861D1002039
:100AA0004349087014E047484149097830F811007B
:100AB00035490968B0FBF1F000EB00413E483C4A83
:100AC000127840F822103A480078401C38490870E3
:100AD00037480078202894DAE5E72848007803288A
:100AE0001DD100203249087014E037483049097898
:100AF00030F8110024490968B0FBF1F000EB004127
:100B00002D482B4A127840F8221029480078401CC2
:100B10002749087026480078202898DAE5E7174822
:100B20000078042854D100202149087014E0274897
:100B30001F49097830F8110013490968B0FBF1F03A
:100B400000EB00401C491A4A127841F8220018486C
:100B50000078401C1649087015480078202800DAF3
:100B6000E5E7DDE01C0000200000964220000020A8
:100B70000000C841150000201400002000000020E3
:100B800002000020040000200C00002006000020CD
:100B900008000020010000200300002005000020C4
:100BA0000700002009000020100000203C00002069
:100BB0000A0000207EAF0008A8010020BEAF000898
:100BC000FEAF00083EB000087EB00008BEB00008CE
:100BD00061480078052871D16048007880BB00200A
:100BE0005F49087027E05F485D49097830F81100D7
:100BF0005D490968B0FBF1F000EB004080B15B4853
:100C00005749097830F8110057490968B0FBF1F0ED
:100C100000EB00415648524A127840F8221005E095
:100C2000002053494E4A127841F822004C4800787F
:100C3000401C4B4908704A480078202870DAD2E7F7
:100C4000FFE746480078012830D100204449087069
:100C500027E048484249097830F8110042490968BC
:100C6000B0FBF1F000EB004080B140483C4909780E
:100C700030F811003C490968B0FBF1F000EB00408E
:100C80003B49374A127841F8220005E000203849F4
:100C9000334A127841F8220031480078401C30492C
:100CA00008702F480078202854DAD2E72B480078C3
:100CB00002284FD100202A49087028E02CE02E4855
:100CC0002749097830F8110027490968B0FBF1F08D
:100CD00000EB004080B125482149097830F8110027
:100CE00021490968B0FBF1F000EB004020491C4AA3
:100CF000127841F8220005E000201D49184A1278B8
:100D000041F8220016480078401C15490870144824
:100D1000007820281EDAD2E700201149087015E07B
:100D200018E016480E49097830F811000E49096894
:100D3000B0FBF1F000EB00410D48094A127840F891
:100D4000221007480078401C0549087004480078C4
:100D50002028E6DBFFF748BB000000200800002049
:100D60000A000020BEAF00080C0000207EAF000883
:100D7000A8010020FEAF00083EB00008FEB0000849
:100D8000704700BFFEE700BFFEE700BFFEE700BF01
:100D9000FEE7704770477047704700000CB50020B1
:100DA000019000906C48006840F480306A49086007
:100DB00000BF6948006800F4003000900198401CB2
:100DC0000190009818B90198B0F5A06FF1D1624870
:100DD000006800F4003010B10120009001E0002014
:100DE00000900098012843D15C48006840F0100052
:100DF0005A4908600846006820F003000860084669
:100E0000006840F00200086053484068524948605A
:100E10000846406848600846406840F48060486082
:100E20000846406820F47C1048600846406840F45A
:100E3000E81048600846006840F08070086000BF15
:100E40004548006800F000700028F9D0424840682A
:100E500020F00300404948600846406840F0020026
:100E6000486000BF3C48406800F00C000828F9D1F9
:100E70000CBD10B5FFF792FF10BD10B536480068E5
:100E800040F0010034490860084640683449084091
:100E90003149486008460068324908402E490860D8
:100EA0000846006820F4802008600846406820F466
:100EB000FE0048604FF41F008860FFF7DAFF4FF034
:100EC00000602949086010BD10B5002100200022F3
:100ED000214B5B6803F00C0121B1042906D00829DD
:100EE00028D107E0214B224C236027E01F4B204CE8
:100EF000236023E0184B5B6803F47010164B5B68AB
:100F000003F48032022303EB904022B9194B434390
:100F1000174C23600DE0104B5B6803F4003323B1E2
:100F2000144B4343124C236003E0104B4343104CDB
:100F3000236003E00D4B0E4C236000BF00BF064B47
:100F40005B68C3F303130C4CE15C094B1B68CB409B
:100F5000074C236010BD000000100240002002403A
:100F60000000FFF8FFFFF6FE08ED00E000127A0037
:100F70002800002000093D002C00002010B500F0E2
:100F8000B7F810BD70B50446002600F0CAF8A020DE
:100F900000F083F900F00AF9201200F07EF900F069
:100FA00005F92546E11704EB11610912A4EB0121B3
:100FB000C8B200F072F900F0F9F800F0B2F8A12020
:100FC00000F06BF900F0F2F8002000F09CF9064602
:100FD00000F0C9F8304670BD70B504460E4600F00A
:100FE000A0F8A02000F059F900F0E0F8201200F07D
:100FF00054F900F0DBF82546E11704EB1161091202
:10100000A4EB0121C8B200F048F900F0CFF8304657
:1010100000F043F900F0CAF800F0A5F842F21070B1
:1010200000F0BEF970BD2DE9F04105460E461746A9
:10103000002409E0E20026FA02F2D1B22A1990B2A5
:10104000FFF7CAFF601CC4B2BC42F3DBBDE8F0810D
:101050002DE9F04107460C460026002509E036023E
:101060003919491B491E88B2FFF78CFF0644681CDA
:10107000C5B2A542F3DB3046BDE8F08110B5FF20D4
:10108000FFF780FF0446552C01D1002010BD5521EB
:10109000FF20FFF7A1FFFF20FFF774FF0446552C48
:1010A00001D10020F2E70120F0E770B506460C46BA
:1010B000154608E03046721C96B2FFF763FF04F84D
:1010C000010B681E85B2002DF4D170BD70B50546C8
:1010D0000C46164606E021782846FFF77DFF681C7F
:1010E00085B2641C301EA6F101018EB2F3D170BD31
:1010F00008B50121042006F055FC4FF4C050ADF8AE
:10110000000010208DF8030003208DF802006946CE
:10111000974806F08BF94FF4C051954806F033FA22
:1011200008BD10B59248001D006820F47040904939
:10113000091D08600846006840F44050086001201E
:101140008C4908608C49C1F8B001042000F028F9EE
:10115000002088490860042000F022F90020864918
:10116000C1F8B00110BD10B58148001D006820F421
:1011700070407F49091D08600846006840F44050EF
:10118000086000207B49091D08607B49C1F8AC015B
:10119000042000F005F901207649091D0860764910
:1011A000C1F8AC01042000F0FBF810BD10B500241C
:1011B0006F48001D006820F470406D49091D0860EB
:1011C0000846006840F40040086001206949086052
:1011D00000F0E6F801206849C1F8B00100F0E0F83D
:1011E00007E0601CC4B2FA2C03DDFFF7BCFF01204E
:1011F00010BD6048803800680028F2D15D49091DA3
:10120000086000BFF4E710B500205A49091D0860C6
:101210005748001D006820F470405549091D0860BA
:101220000846006840F44050086000205249C1F868
:10123000AC01022000F0B4F801204E49091D0860FD
:10124000022000F0ADF800204B49C1F8B00110BDFC
:1012500010B500204749091D08604548001D006879
:1012600020F470404249091D08600846006840F4B7
:101270004050086001204049C1F8AC01022000F054
:101280008FF801203B49091D0860022000F088F812
:1012900000203949C1F8B00110BD70B5044634488A
:1012A000001D006820F470403149091D086008469F
:1012B000006840F44050086000202E49091D086075
:1012C00000251DE0E00918B101202A49086002E06C
:1012D0000020284908606006040E022000F060F833
:1012E00001202449091D0860022000F059F800205F
:1012F0002149C1F8B001022000F052F8681CC5B2C3
:10130000082DDFDB70BD70B5054600241848001DB0
:10131000006820F470401649091D086008460068FE
:1013200040F400400860002617E000201149091D24
:101330000860022000F034F801200F49C1F8B00124
:101340006006040E0B488038006808B1601CC4B207
:10135000012000F025F8701CC6B2082EE5DB15B997
:10136000FFF776FF01E0FFF74EFF204670BD00005B
:1013700000080140AC012142000021421A480068E7
:1013800040F08070184908600020184948600846FD
:10139000006840F0010008607047144840687047DA
:1013A00031B5002312480068124DB0FBF5F0009DE6
:1013B00000FB05F400BFFFF7F0FF024611E0FFF766
:1013C000ECFF014691420CD0914202D9881A0344A5
:1013D00003E0C2F1FF30084403440A46A34200D3AD
:1013E00000E0ECE700BF38BDFCED00E0001000E0DD
:1013F0002800002040420F0000B585B001210420E4
:1014000006F0D0FA0121480706F0D9FA1820ADF805
:10141000100000208DF8130004A9364806F006F8E5
:1014200024200090002001900220039069460020B3
:1014300006F08DFD6946102006F089FD012100208F
:1014400006F0A2FD0121102006F09EFD01211020D2
:1014500006F0ABFD05B000BD0EB50121084606F053
:10146000AEFA25480088401E80B2ADF80400002086
:10147000ADF80000ADF80600ADF8020069464FF087
:10148000804007F027F92021480607F0F8FE0121E7
:10149000880707F07BFC0EBD00B58BB00121022050
:1014A00006F073FA1548009015480190102002903C
:1014B000202003900020049080200590800006905A
:1014C00080000790202008900002099000200A90D8
:1014D00069460C4806F098FE01210A4806F0BFFE56
:1014E0000BB000BD10B5FFF787FFFFF7B5FFFFF7A3
:1014F000D3FF10BD000801403C00002020740040D4
:10150000A80100204404024008B50121602006F033
:1015100049FA4CF20300ADF8000010208DF80300EA
:1015200003208DF802006946224805F07FFF4FF442
:101530007E50ADF8000010208DF8030003208DF8D8
:10154000020069461C4805F071FF08BD1B49095C93
:1015500001F001011A4A11601849095CC1F3400108
:10156000184AC2F8BC111549095CC1F38001144A3C
:10157000383A11601149095CC1F3C001114AC2F83F
:1015800084110E49095CC1F300110F4A11600B4927
:10159000095CC1F34011121D11600849095CC1F3D7
:1015A0008011121D11600549095CC909074AC2F87A
:1015B000A811704700140140001801403E000020AF
:1015C000B8812242008022429C0123420000234233
:1015D000FE4A1080921C11807047FC49891C0880CB
:1015E0007047FA490880704730B503460C461546E7
:1015F000F748808849F24131884205D0F448808814
:1016000045F21031884214D1F1494889FFF7E9FFCA
:101610001812FFF7E2FFD8B2FFF7DFFFEC49888925
:10162000FFF7DFFF2012FFF7D8FFE0B2FFF7D5FF8B
:10163000B3E0E748808845F21051884220D1E44960
:101640004889FFF7CEFF1812FFF7C7FFE049498925
:10165000491C88B2FFF7C5FFD8B2FFF7BEFFDC49CF
:101660008889FFF7BEFF2012FFF7B7FFD8498989A5
:10167000491C88B2FFF7B5FFE0B2FFF7AEFF8CE080
:10168000D348808841F66311884228D1D0488079B8
:1016900020B9CF480088401EC01A83B2CC4948897F
:1016A000FFF79FFF1812FFF798FFD8B2FFF795FFDB
:1016B0001812FFF792FFD8B2FFF78FFFC44988894D
:1016C000FFF78FFF2012FFF788FFE0B2FFF785FFDB
:1016D0002012FFF782FFE0B2FFF77FFF5DE0BC481A
:1016E000808846F6040188421DD1B94880790128D6
:1016F00004D1B7480088401EC01A83B2B449488953
:10170000FFF76FFF1812FFF768FFD8B2FFF765FF0A
:10171000AF498889FFF765FF2012FFF75EFFE0B24F
:10172000FFF75BFF39E0AA48808849F28841884288
:1017300020D1A7494889FFF754FF1812FFF74DFF42
:10174000D8B2FFF74AFF1812FFF747FFD8B2FFF7EA
:1017500044FF9F498889FFF744FF2012FFF73DFFB0
:10176000E0B2FFF73AFF2012FFF737FFE0B2FFF7D2
:1017700034FF12E096488079012804D1944800880B
:10178000401EC01A83B2924948891946FFF720FFCC
:101790008F4988892146FFF71BFF8D4800898B49B7
:1017A0000880881C058030BD2DE9FF4F07460D4697
:1017B0001C46AA462046E21704EB5272D21021467C
:1017C000E31704EB5373DB10A4EBC3030BB101234A
:1017D00000E000231A44624302F0FF0B002637E0CA
:1017E000102C08D1029800EBC0007A4901EB800070
:1017F00010F8068001E0BDE8FF8F4FF0000921E0FE
:1018000008F0800030B17448028829463846FFF756
:10181000EBFE05E07148028829463846FFF7E4FEF2
:101820004FEA48604FEA1068681CC5B2A5EB0A0091
:10183000A04203D15546781CC7B206E009F1010069
:1018400000F0FF09B9F1080FDADB00BF701CC6B267
:101850005E45C5DB00BFCEE708B55C48801C00884C
:101860000090BDF8000008BD10B504462046FFF703
:10187000B8FE052005F0F5F8FFF7EEFF10BD54485F
:1018800000895249088070475049891C0880704778
:1018900030B5014601F01F04C1F34513CA0AE50241
:1018A00005EB43151544A8B230BD00BF011EA0F1E1
:1018B0000102D0B2FAD1704710B503460C46444835
:1018C000808849F24131884205D04148808845F2FC
:1018D0001031884214D13E494889FFF782FE181220
:1018E000FFF77BFED8B2FFF778FE39498889FFF70A
:1018F00078FE2012FFF771FEE0B2FFF76EFEEBE01C
:101900003348808846F6040188421DD130488079EA
:10191000012804D12E480088401EC01A83B22C49E9
:101920004889FFF75EFE1812FFF757FED8B2FFF79F
:1019300054FE27498889FFF754FE2012FFF74DFE19
:10194000E0B2FFF74AFEC7E02148808841F6631104
:10195000884252D11E488079A8B91D480088401E8F
:10196000C01A83B21A494889FFF73BFE0020FFF7EF
:1019700034FE0020FFF731FE1812FFF72EFED8B21A
:10198000FFF72BFE16E012494889FFF72AFE1812CE
:10199000FFF723FED8B2FFF720FE0D490988491E44
:1019A000C1F30F20FFF719FE09490978491EC8B293
:1019B000FFF713FE06498889FFF713FE2012FFF791
:1019C0000CFEE0B2FFF709FE014909E0FE07006CDA
:1019D000280200203EB10008480000204A000020F4
:1019E0004988491EC1F30F20FFF7F7FDFE498978AA
:1019F000491EC8B2FFF7F1FD6EE0FB48808845F252
:101A00001051884220D1F8494889FFF7EAFD1812A1
:101A1000FFF7E3FDF4494989491C88B2FFF7E1FD6E
:101A2000D8B2FFF7DAFDF0498889FFF7DAFD201216
:101A3000FFF7D3FDEC498989491C88B2FFF7D1FD36
:101A4000E0B2FFF7CAFD47E0E748808849F28841E5
:101A500088422ED1E4494889FFF7C3FD1812FFF7E9
:101A6000BCFDD8B2FFF7B9FDDF490988491EC1F3B3
:101A70000F20FFF7B2FDDC490978491EC8B2FFF715
:101A8000ACFDD9498889FFF7ACFD2012FFF7A5FD11
:101A9000E0B2FFF7A2FDD4494988491EC1F30F20E7
:101AA000FFF79BFDD0498978491EC8B2FFF795FD25
:101AB00012E0CD488079012804D1CB480088401E2F
:101AC000C01A83B2C84948891946FFF781FDC64943
:101AD00088892146FFF77CFD10BD2DE9F0410546C0
:101AE0000E4600240027A046BF480088A84203DD18
:101AF000BD484088B04202DC0020BDE8F08131469C
:101B00002846FFF7D9FEB848808849F2413188421B
:101B100017D0B548808846F60401884211D0B248F3
:101B2000808845F2103188420BD0AF48808841F65A
:101B30006311884205D0AC48808849F288418842C8
:101B400003D12E20FFF74DFD0DE0A748808845F218
:101B50001051884204D14FF43850FFF742FD02E0A3
:101B60002220FFF73EFDA048808849F220318842BC
:101B700002D10220FFF799FEFFF76EFE04469A4855
:101B8000808841F66311884201D12046B5E70220E2
:101B9000FFF78BFEFFF760FE04469348808849F20A
:101BA0004131884211D09048808845F210318842F6
:101BB0000BD08D48808845F21051884205D08A4864
:101BC000808849F2884188420AD10220FFF76DFEE1
:101BD000FFF742FE8046E7B24FF6FF7000EA0727A4
:101BE0008148808849F22531884216D07E48808815
:101BF00044F23551884210D07B488088091F8842C2
:101C00000BD0794880884BF20551884205D0764840
:101C100080884CF20551884201D120466DE7724818
:101C2000808849F24131884211D06F48808845F25E
:101C3000103188420BD06C48808845F210518842A0
:101C400005D06948808849F28841884207D1E0126E
:101C5000C002B91240EA411040EAE8204DE72046B0
:101C6000FFF716FE49E700B55F48808849F2413129
:101C7000884217D05C48808846F60401884211D01B
:101C80005948808845F2103188420BD056488088E8
:101C900041F66311884205D05348808849F2884153
:101CA000884203D12920FFF79CFC0FE04E48808832
:101CB00045F21051884204D14FF42450FFF791FCB3
:101CC00004E040F273110720FFF782FC00BD00B56D
:101CD0004548808849F24131884217D0424880887F
:101CE00046F60401884211D03F48808845F2103101
:101CF00088420BD03C48808841F66311884205D069
:101D00003948808849F28841884203D12820FFF76A
:101D100068FC0EE03448808845F21051884204D1B6
:101D20004FF42050FFF75DFC03E000210720FFF790
:101D30004FFC00BD70B50446002300262A48807978
:101D400001280BD12848808846F60401884205D036
:101D50002548808841F66311884208D1224880795D
:101D6000F0B92148808841F66311884218D1082CC7
:101D700015D2DFE804F00406080A0C0E101206243F
:101D80000DE007240BE0042409E0052407E001240A
:101D900005E0002403E0032401E0022400BF00BFAB
:101DA0001148808849F24131884220D00E4880880D
:101DB00046F6040188421AD00B48808845F210315B
:101DC000884214D00848808845F2105188420ED0CD
:101DD0000548808841F66311884208D0024880880F
:101DE00049F28841884201E0280200207ED1082C77
:101DF0001CD2DFE804F00406090C0F12151800BF0E
:101E000014E043F0800311E043F040030EE043F0A0
:101E1000C0030BE043F0200308E043F0600305E05B
:101E200043F0A00302E043F0E00300BF00BFFD4821
:101E3000808845F21051884202D14FF4585600E094
:101E40003626F848808845F2103188420DD0F54892
:101E5000808845F21051884207D0F248808841F6C8
:101E60006311884201D043F00803EE48808846F6AB
:101E70000401884201D143F0020319463046FFF7BE
:101E8000A7FBE848808841F6631188421DD003F023
:101E9000200068B1E3480088E2494988884214DAA2
:101EA000E04805884088DF490880084645800CE006
:101EB000DC480088DB494988884206DDD948058826
:101EC0004088D849088008464580D648808845F231
:101ED0001051884254D1D3494889FFF782FB002032
:101EE000FFF77BFBCF494989491C00E077E088B2C6
:101EF000FFF777FB0020FFF770FBCA494989891C6F
:101F000088B2FFF76EFBC7490988491EC1F30F204D
:101F1000FFF763FBC3494989C91C88B2FFF761FB1E
:101F2000C0490978491EC8B2FFF757FBBD498889E7
:101F3000FFF757FB0020FFF750FBBA498989491C7E
:101F400088B2FFF74EFB0020FFF747FBB5498989B0
:101F5000891C88B2FFF745FBB2494988491EC1F385
:101F60000F20FFF73AFBAF498989C91C88B2FFF7F8
:101F700038FBAC498978491EC8B2FFF72EFB55E003
:101F8000A8494889FFF72DFB0020FFF726FB00201A
:101F9000FFF723FBA3490988491EC1F30F20FFF770
:101FA0001CFBA0490978491EC8B2FFF716FB9D49E2
:101FB0008889FFF716FB0020FFF70FFB0020FFF7D3
:101FC0000CFB98494988491EC1F30F20FFF705FB18
:101FD00094498978491EC8B2FFF7FFFA26E0082C19
:101FE0001CD2DFE804F004070A0D0F12151843F0A5
:101FF000300313E043F0100310E043F020030DE042
:1020000000BF0BE043F0380308E043F0280305E08D
:1020100043F0180302E043F0080300BF00BF0326AB
:1020200043F4805319463046FFF7D2FA70BD30B5FD
:1020300004460D4629462046FFF73EFCFFF71FFCED
:10204000794800887949088030BD2DE9F047044679
:10205000BE20FFF7C6FA0520FFF7BFFA204608F0BA
:10206000B6FC07464FF06632714B08F0C3FC0546DC
:1020700008F080FC1FFA80F94846FFF7AEFA01200D
:10208000FFF7ABFAFF20FFF7A8FA0020FFF7A5FA49
:102090000020FFF7A2FABDE8F08710B50446002C37
:1020A00073D160498871F02008804FF4A070488097
:1020B0000846808849F24131884211D059488088C9
:1020C00046F6040188420BD05648808845F210310C
:1020D000884205D05348808849F28841884220D1FF
:1020E0002C20504908812A2048812B2088810846CD
:1020F000808846F6040188420BD04A48808845F221
:102100001031884205D04748808849F2884188428A
:1021100006D14FF4A070434908804FF4F070488016
:10212000BCE04048808845F21051884210D14FF4FD
:1021300030503C4908814FF4285048814FF42C50CE
:1021400088814FF4F07008804FF448704880A5E013
:102150003448808841F6631188420DD12C203149E2
:1021600008812B2048812A2088814FF4F070088054
:102170004FF44870488091E022202A4908812020AD
:1021800048812120888189E0FFE701202549887165
:102190004FF4A0700880F02048800846808849F2FB
:1021A000413188420BD01F48808845F21031884267
:1021B00005D01C48808849F2884188420DD12C20E6
:1021C000184908812A2048812B2088814FF4F0701B
:1021D00008804FF4A070488047E01248808846F697
:1021E0000401884207D12C200E4908812B20488108
:1021F0002A20888139E00B48808845F210518842B6
:1022000018D14FF43050074908814FF428504881C5
:102210004FF42C5088814FF4487008804FF4F070D0
:10222000488022E028020020480000200008006CBE
:1022300066660440FE48808841F6631188420DD1ED
:102240002C20FB4908812A2048812B2088814FF4CB
:10225000487008804FF4F070488006E02220F4496E
:1022600008812120488120208881F148808846F615
:10227000040188420BD0EE48808845F21031884234
:1022800005D0EB48808849F28841884206D14FF456
:10229000F070E74908804FF4A07048800320FFF7F2
:1022A00049FD10BD2DE9F04F86B004460D4690461D
:1022B000994604EB0800401E86B205EB0900401E5B
:1022C00087B2DB48808849F2413188421BD0D84828
:1022D000808845F21031884215D0D548808846F66E
:1022E000040188420FD0D2488079012805D1D04816
:1022F000808841F66311884205D0CD48808849F234
:102300008841884220D1CA494889FFF76AF92012DA
:10231000FFF763F9E0B2FFF760F93012FFF75DF9FC
:10232000F0B2FFF75AF9C2498889FFF75AF9281223
:10233000FFF753F9E8B2FFF750F93812FFF74DF9FC
:10234000F8B2FFF74AF9B8E0B948808841F663115E
:10235000884234D1B6480088A0EB0800001B84B244
:1023600005EB0900401E1FFA80F9B1494889FFF7C3
:1023700038F92012FFF731F9E0B2FFF72EF904EB3C
:102380000801491EC1F30F20FFF727F904EB0801EC
:10239000491EC8B2FFF721F9A5498889FFF721F93D
:1023A0002812FFF71AF9E8B2FFF717F94FEA2920C8
:1023B000FFF713F909F0FF00FFF70FF97DE09C48E4
:1023C000808845F21051884244D199494889FFF7E5
:1023D00008F92012FFF701F995494989491C88B28B
:1023E000FFF7FFF8E0B2FFF7F8F891494989891C37
:1023F00088B2FFF7F6F83012FFF7EFF88C494989F9
:10240000C91C88B2FFF7EDF8F0B2FFF7E6F888498B
:102410008889FFF7E6F82812FFF7DFF884498989F1
:10242000491C88B2FFF7DDF8E8B2FFF7D6F880491B
:102430008989891C88B2FFF7D4F83812FFF7CDF8E4
:102440007B498989C91C88B2FFF7CBF8F8B2FFF73E
:10245000C4F832E07648807901280ED1AA46BB46FE
:1024600073480088801B401E80B20190704800882D
:10247000001B401E80B2009003E0A246B3460195C7
:102480000097502005905120049052200390532033
:10249000029051460598FFF79BF859460498FFF7BC
:1024A00097F801990398FFF793F800990298FFF7BE
:1024B0008FF829462046FFF7FFF906B0BDE8F08FF8
:1024C00070B5044600265A48058840884543584858
:1024D000808846F60401884216D155488079012843
:1024E00012D10020524988712A2048812B208881EE
:1024F00000210846FFF7E0F901204D4988712B20A3
:1025000048812A20888103E000210846FFF7D4F99A
:10251000FFF7B5F9002602E046480480761CAE427B
:10252000FAD370BD00B59FB00121080205F02DFA65
:1025300001214FF4F47005F035FA0420ADF878006D
:1025400010208DF87B0003208DF87A001EA93A48F0
:1025500004F06CFF642004F0A8FA0421364805F06A
:1025600014F8642004F0A1FA0421334805F00BF8B4
:10257000642004F09AFA4FF40040ADF8780010207F
:102580008DF87B0003208DF87A001EA92B4804F0FB
:102590004DFF4CF23370ADF8780018208DF87B00B9
:1025A00003208DF87A001EA9254804F03FFF4FF65E
:1025B0008070ADF8780018208DF87B0003208DF82E
:1025C0007A001EA91C4804F031FF41F20100ADF869
:1025D000780018208DF87B0003208DF87A001EA962
:1025E000184804F023FF01200890002009900F20D4
:1025F0000A9000200B900C900D900E90019002908C
:102600000320039000200490059006900790062078
:102610000F90002010901190102012900020139025
:1026200015901490169017904FF4805018900BE06E
:10263000280200200008006C00180140000C014036
:102640000014014000200140002019904FF4804008
:102650001A9000201B9008A81C9001A81D900FA89C
:1026600004F0CAFB0121062004F02EFD322004F004
:102670001CFA49F28840FE49888008468088FF2875
:102680000ADB084680884FF6FF71884204D0F8487C
:102690008088B0F5134F7DD1D320FEF7A2FFFFF75E
:1026A000DBF8F3498880FFF7D7F8F1498880FFF716
:1026B000D3F8EF498880084680884FF6FF7101EA19
:1026C0000020EB498880FFF7C7F8E949898808436B
:1026D000E74988800846808849F24131884259D0CC
:1026E000E348808849F288418842F8D0BF20FEF74D
:1026F00078FFFFF7B1F8DE498880FFF7ADF8DC49D5
:102700008880FFF7A9F8DA498880FFF7A5F8D8494B
:102710008880084680884FF6FF7101EA0020D4497E
:102720008880FFF799F8D24989880843D049888082
:102730000846808846F6040188427AD0D420FEF705
:1027400050FFFFF789F8CA498880FFF785F8C84924
:102750008880FFF781F8C6498880084680884FF650
:10276000FF7101EA0020C2498880FFF775F8C0496F
:1027700089880843BE4988800846808845F2103120
:10278000884256D04FF45A40FEF72BFFFFF764F80B
:10279000B74900E04DE088804FF45B40FEF721FF31
:1027A000FFF75AF8B2498880084680884FF6FF71D3
:1027B00001EA0020AE4988804FF45C40FEF711FF2B
:1027C000FFF74AF8AA4989880843A949888008463A
:1027D0008088B0F5004F02D145F210508880A4489F
:1027E000808845F21051884223D0A120FEF7F9FEDF
:1027F000FFF732F89E498880FFF72EF89C498880C1
:10280000084680884FF6FF7101EA002098498880C9
:10281000FFF722F896498988084395498880084639
:10282000808845F26171884203D141F66310904976
:1028300088808F4881888FA007F038FE8C48808878
:1028400049F2413188427CD1CF20FEF7CAFE0020F8
:10285000FEF7C3FEC120FEF7C0FE3020FEF7BDFE2E
:10286000ED20FEF7BEFE6420FEF7B7FE0320FEF764
:10287000B4FE1220FEF7B1FE8120FEF7AEFEE82086
:10288000FEF7AFFE8520FEF7A8FE1020FEF7A5FE9E
:102890007A20FEF7A2FECB20FEF7A3FE3920FEF73A
:1028A0009CFE2C20FEF799FE0020FEF796FE3420B9
:1028B000FEF793FE0220FEF790FEF720FEF791FE52
:1028C0002020FEF78AFEEA20FEF78BFE0020FEF7AE
:1028D00084FE0020FEF781FEC020FEF782FE1B2052
:1028E000FEF77BFEC120FEF77CFE0120FEF775FEA1
:1028F000C520FEF776FE3020FEF76FFE3020FEF793
:102900006CFEC720FEF76DFEB720FEF766FE362090
:10291000FEF767FE4820FEF760FE3A20FEF761FEF4
:102920005520FEF75AFEB120FEF75BFE0020FEF7B1
:1029300054FE1A20FEF751FEB620FEF752FE0A2082
:1029400000E0A4E0FEF749FEA220FEF746FEF220DA
:10295000FEF747FE0020FEF740FE2620FEF741FE70
:102960000120FEF73AFEE020FEF73BFE0F20FEF7C7
:1029700034FE2A20FEF731FE2820FEF72EFE082026
:10298000FEF72BFE0E20FEF728FE0820FEF725FEA0
:102990005420FEF722FEA920FEF71FFE4320FEF77B
:1029A0001CFE0A20FEF719FE0F20FEF716FE00207F
:1029B000FEF713FE0020FEF710FE0020FEF70DFECE
:1029C0000020FEF70AFEE120FEF70BFE0020FEF7D6
:1029D00004FE1520FEF701FE1720FEF7FEFD07207E
:1029E000FEF7FBFD1120FEF7F8FD0620FEF7F5FDD2
:1029F0002B20FEF7F2FD5620FEF7EFFD3C20FEF700
:102A0000ECFD0520FEF7E9FD1020FEF7E6FD0F20A6
:102A1000FEF7E3FD3F20FEF7E0FD3F20FEF7DDFD82
:102A20000F20FEF7DAFD2B20FEF7DBFD0020FEF77E
:102A3000D4FD0020FEF7D1FD0120FEF7CEFD3F20A2
:102A4000FEF7CBFD2A20FEF7CCFD0020FEF7C5FDEA
:102A50000020FEF7C2FD0020FEF7BFFDEF20FEF7CD
:102A6000BCFD1120FEF7BDFD782004F01EF809E042
:102A700028020020204C43442049443A25780D0A7E
:102A8000000000002920FEF7ACFD03F0F2B9FE487B
:102A9000808849F2884188427ED1F720FEF7A1FD67
:102AA000A920FEF79AFD5120FEF797FD2C20FEF796
:102AB00094FD8220FEF791FDC020FEF792FD1120CB
:102AC000FEF78BFD0920FEF788FDC120FEF789FD8A
:102AD0004120FEF782FDC520FEF783FD0020FEF7B2
:102AE0007CFD0A20FEF779FD8020FEF776FDB120FF
:102AF000FEF777FDB020FEF770FD1120FEF76DFDAB
:102B0000B420FEF76EFD0220FEF767FDB620FEF74B
:102B100068FD0220FEF761FD2220FEF75EFDB72072
:102B2000FEF75FFDC620FEF758FDBE20FEF759FDFB
:102B30000020FEF752FD0420FEF74FFDE920FEF7CE
:102B400050FD0020FEF749FD3620FEF74AFD082023
:102B5000FEF743FD3A20FEF744FD5520FEF73DFD0C
:102B6000E020FEF73EFD0020FEF737FD0720FEF7D0
:102B700034FD1020FEF731FD0920FEF72EFD172051
:102B8000FEF72BFD0B20FEF728FD4120FEF725FD6B
:102B90008920FEF722FD00E04EE04B20FEF71DFDF0
:102BA0000A20FEF71AFD0C20FEF717FD0E20FEF797
:102BB00014FD1820FEF711FD1B20FEF70EFD0F205F
:102BC000FEF70BFDE120FEF70CFD0020FEF705FDF2
:102BD0001720FEF702FD1A20FEF7FFFC0420FEF787
:102BE000FCFC0E20FEF7F9FC0620FEF7F6FC2F2079
:102BF000FEF7F3FC4520FEF7F0FC4320FEF7EDFC6A
:102C00000220FEF7EAFC0A20FEF7E7FC0920FEF7A7
:102C1000E4FC3220FEF7E1FC3620FEF7DEFC0F205C
:102C2000FEF7DBFC1120FEF7DCFC782003F03DFF13
:102C30002920FEF7D6FC28E79348808846F6040151
:102C400088427CD11120FEF7CCFC142003F02DFF2C
:102C5000D020FEF7C6FC0720FEF7BFFC4220FEF79F
:102C6000BCFC1D20FEF7B9FCD120FEF7BAFC002009
:102C7000FEF7B3FC1A20FEF7B0FC0920FEF7ADFC0E
:102C8000D220FEF7AEFC0120FEF7A7FC2220FEF7C3
:102C9000A4FCC020FEF7A5FC1020FEF79EFC3B2004
:102CA000FEF79BFC0020FEF798FC0220FEF795FC47
:102CB0001120FEF792FCC520FEF793FC0320FEF7DF
:102CC0008CFCC820FEF78DFC0020FEF786FC25203A
:102CD000FEF783FC2120FEF780FC0520FEF77DFC3B
:102CE0000020FEF77AFC0A20FEF777FC6520FEF74D
:102CF00074FC2520FEF771FC7720FEF76EFC502057
:102D0000FEF76BFC0F20FEF768FC0020FEF765FC69
:102D1000F820FEF766FC0120FEF75FFCFE20FEF7C0
:102D200060FC0020FEF759FC0220FEF756FC202034
:102D3000FEF757FC3620FEF754FC082000E02CE09C
:102D4000FEF74BFC3A20FEF74CFC5520FEF745FC05
:102D50002B20FEF746FC0020FEF73FFC0020FEF78C
:102D60003CFC0120FEF739FC3F20FEF736FC2A2010
:102D7000FEF737FC0020FEF730FC0020FEF72DFCAC
:102D80000120FEF72AFCDF20FEF727FC782003F065
:102D90008CFE2920FEF725FC77E63B48808845F22B
:102DA0001031884240F07C87ED20FEF71AFC0120AC
:102DB000FEF713FCFE20FEF710FCEE20FEF711FCE0
:102DC000DE20FEF70AFC2120FEF707FCF120FEF7CB
:102DD00008FC0120FEF701FCDF20FEF702FC1020BA
:102DE000FEF7FBFBC420FEF7FCFB8F20FEF7F5FB94
:102DF000C620FEF7F6FB0020FEF7EFFBE220FEF711
:102E0000ECFBE220FEF7E9FBE220FEF7E6FBBF2049
:102E1000FEF7E7FBAA20FEF7E0FBB020FEF7E1FBA0
:102E20000D20FEF7DAFB0020FEF7D7FB0D20FEF7A2
:102E3000D4FB0020FEF7D1FB1120FEF7CEFB0020D3
:102E4000FEF7CBFB1920FEF7C8FB0020FEF7C5FB01
:102E50002120FEF7C2FB0020FEF7BFFB2D20FEF76E
:102E6000BCFB0020FEF7B9FB3D20FEF7B6FB0020BF
:102E7000FEF7B3FB5D20FEF7B0FB0020FEF7ADFBD5
:102E80005D20FEF7AAFB01E0280200200020FEF7EB
:102E9000A4FBB120FEF7A5FB8020FEF79EFB0020DF
:102EA000FEF79BFB8B20FEF798FB0020FEF795FBBF
:102EB0009620FEF792FB0020FEF78FFBB220FEF774
:102EC00090FB0020FEF789FB0020FEF786FB022026
:102ED000FEF783FB0020FEF780FB0320FEF77DFB5F
:102EE0000020FEF77AFBB320FEF77BFB0020FEF705
:102EF00074FB0020FEF771FB0020FEF76EFB002044
:102F0000FEF76BFB0020FEF768FB0020FEF765FB79
:102F10000020FEF762FB0020FEF75FFB0020FEF7BB
:102F20005CFB0020FEF759FB0020FEF756FB00205B
:102F3000FEF753FB0020FEF750FB0020FEF74DFB91
:102F40000020FEF74AFB0020FEF747FB0020FEF7BB
:102F500044FB0020FEF741FB0020FEF73EFB002073
:102F6000FEF73BFB0020FEF738FB0020FEF735FBA9
:102F70000020FEF732FB0020FEF72FFBB420FEF707
:102F800030FB8B20FEF729FB0020FEF726FB962066
:102F9000FEF723FB0020FEF720FBA120FEF71DFB20
:102FA0000020FEF71AFBB520FEF71BFB0220FEF700
:102FB00014FB0020FEF711FB0320FEF70EFB0020A0
:102FC000FEF70BFB0420FEF708FB0020FEF705FBD5
:102FD000B620FEF706FB0020FEF7FFFA0020FEF702
:102FE000FCFAB720FEF7FDFA0020FEF7F6FA002003
:102FF000FEF7F3FA3F20FEF7F0FA0020FEF7EDFAB5
:103000005E20FEF7EAFA0020FEF7E7FA6420FEF7FA
:10301000E4FA0020FEF7E1FA8C20FEF7DEFA002049
:10302000FEF7DBFAAC20FEF7D8FA0020FEF7D5FA5F
:10303000DC20FEF7D2FA0020FEF7CFFA7020FEF770
:10304000CCFA0020FEF7C9FA9020FEF7C6FA00205D
:10305000FEF7C3FAEB20FEF7C0FA0020FEF7BDFA38
:10306000DC20FEF7BAFA0020FEF7B7FAB820FEF728
:10307000B8FA0020FEF7B1FA0020FEF7AEFA002001
:10308000FEF7ABFA0020FEF7A8FA0020FEF7A5FA3B
:103090000020FEF7A2FA0020FEF79FFA0020FEF7BC
:1030A0009CFABA20FEF79DFA2420FEF796FA00203B
:1030B000FEF793FA0020FEF790FA0020FEF78DFA53
:1030C000C120FEF78EFA2020FEF787FA0020FEF7D7
:1030D00084FA5420FEF781FA0020FEF77EFAFF20E2
:1030E000FEF77BFA0020FEF778FAC220FEF779FAA5
:1030F0000A20FEF772FA0020FEF76FFA0420FEF7AE
:103100006CFA0020FEF769FAC320FEF76AFA3C2049
:10311000FEF763FA0020FEF760FA3A20FEF75DFA48
:103120000020FEF75AFA3920FEF757FA0020FEF782
:1031300054FA3720FEF751FA0020FEF74EFA3C20F1
:10314000FEF74BFA0020FEF748FA3620FEF745FA64
:103150000020FEF742FA3220FEF73FFA0020FEF789
:103160003CFA2F20FEF739FA0020FEF736FA2C2021
:10317000FEF733FA0020FEF730FA2920FEF72DFA89
:103180000020FEF72AFA2620FEF727FA0020FEF795
:1031900024FA2420FEF721FA0020FEF71EFA24204C
:1031A000FEF71BFA0020FEF718FA2320FEF715FAA7
:1031B0000020FEF712FA3C20FEF70FFA0020FEF77F
:1031C0000CFA3620FEF709FA0020FEF706FA322044
:1031D000FEF703FA0020FEF700FA2F20FEF7FDF9B4
:1031E0000020FEF7FAF92C20FEF7F7F90020FEF791
:1031F000F4F92920FEF7F1F90020FEF7EEF9262078
:10320000FEF7EBF90020FEF7E8F92420FEF7E5F9D8
:103210000020FEF7E2F92420FEF7DFF90020FEF798
:10322000DCF92320FEF7D9F90020FEF7D6F9C420F7
:10323000FEF7D7F96220FEF7D0F90020FEF7CDF9AE
:103240000520FEF7CAF90020FEF7C7F98420FEF733
:10325000C4F90020FEF7C1F9F020FEF7BEF9002006
:10326000FEF7BBF91820FEF7B8F90020FEF7B5F914
:10327000A420FEF7B2F90020FEF7AFF91820FEF700
:10328000ACF90020FEF7A9F95020FEF7A6F90020BE
:10329000FEF7A3F90C20FEF7A0F90020FEF79DF938
:1032A0001720FEF79AF90020FEF797F99520FEF710
:1032B00094F90020FEF791F9F320FEF78EF9002033
:1032C000FEF78BF9E620FEF788F90020FEF785F976
:1032D000C520FEF786F93220FEF77FF90020FEF7C1
:1032E0007CF94420FEF779F90020FEF776F9652095
:1032F000FEF773F90020FEF770F97620FEF76DF9FE
:103300000020FEF76AF98820FEF767F90020FEF733
:1033100064F9C620FEF765F92020FEF75EF900206B
:10332000FEF75BF91720FEF758F90020FEF755F974
:103330000120FEF752F90020FEF74FF9C720FEF7F3
:1033400050F90020FEF749F90020FEF746F9002069
:10335000FEF743F90020FEF740F9C820FEF741F9D7
:103360000020FEF73AF90020FEF737F90020FEF7BB
:1033700034F90020FEF731F9C920FEF732F90020B8
:10338000FEF72BF90020FEF728F90020FEF725F9BB
:103390000020FEF722F90020FEF71FF90020FEF7BB
:1033A0001CF90020FEF719F90020FEF716F900209D
:1033B000FEF713F90020FEF710F90020FEF70DF9D3
:1033C0000020FEF70AF90020FEF707F90020FEF7BB
:1033D00004F90020FEF701F90020FEF7FEF8E020D6
:1033E000FEF7FFF81620FEF7F8F80020FEF7F5F8D4
:1033F0001C20FEF7F2F80020FEF7EFF82120FEF780
:10340000ECF80020FEF7E9F83620FEF7E6F8002099
:10341000FEF7E3F84620FEF7E0F80020FEF7DDF8BF
:103420005220FEF7DAF80020FEF7D7F86420FEF706
:10343000D4F80020FEF7D1F87A20FEF7CEF800206D
:10344000FEF7CBF88B20FEF7C8F80020FEF7C5F892
:103450009920FEF7C2F80020FEF7BFF8A820FEF77B
:10346000BCF80020FEF7B9F8B920FEF7B6F8002046
:10347000FEF7B3F8C420FEF7B0F80020FEF7ADF871
:10348000CA20FEF7AAF80020FEF7A7F8D220FEF720
:10349000A4F80020FEF7A1F8D920FEF79EF800203E
:1034A000FEF79BF8E020FEF798F80020FEF795F86D
:1034B000F320FEF792F80020FEF78FF8E120FEF7E8
:1034C00090F81620FEF789F80020FEF786F81C20F9
:1034D000FEF783F80020FEF780F82220FEF77DF843
:1034E0000020FEF77AF83620FEF777F80020FEF786
:1034F00074F84520FEF771F80020FEF76EF85220B0
:10350000FEF76BF80020FEF768F86420FEF765F818
:103510000020FEF762F87A20FEF75FF80020FEF741
:103520005CF88B20FEF759F80020FEF756F899203A
:10353000FEF753F80020FEF750F8A820FEF74DF8EC
:103540000020FEF74AF8B920FEF747F80020FEF702
:1035500044F8C420FEF741F80020FEF73EF8CA20E8
:10356000FEF73BF80020FEF738F8D220FEF735F8DA
:103570000020FEF732F8D820FEF72FF80020FEF7E3
:103580002CF8E020FEF729F80020FEF726F8F320BB
:10359000FEF723F80020FEF720F8E220FEF721F8DE
:1035A0000520FEF71AF80020FEF717F80B20FEF7AB
:1035B00014F80020FEF711F81B20FEF70EF800208B
:1035C000FEF70BF83420FEF708F80020FEF705F8A8
:1035D0004420FEF702F80020FDF7FFFF4F20FDF723
:1035E000FCFF0020FDF7F9FF6120FDF7F6FF00204A
:1035F000FDF7F3FF7920FDF7F0FF0020FDF7EDFF69
:103600008820FDF7EAFF0020FDF7E7FF9720FDF790
:10361000E4FF0020FDF7E1FFA620FDF7DEFF00201C
:10362000FDF7DBFFB720FDF7D8FF0020FDF7D5FF42
:10363000C220FDF7D2FF0020FDF7CFFFC720FDF726
:10364000CCFF0020FDF7C9FFD120FDF7C6FF002009
:10365000FDF7C3FFD620FDF7C0FF0020FDF7BDFF3B
:10366000DD20FDF7BAFF0020FDF7B7FFF320FDF7DF
:10367000B4FF0020FDF7B1FFE320FDF7B2FF052006
:10368000FDF7ABFF0020FDF7A8FF0A20FDF7A5FF1F
:103690000020FDF7A2FF1C20FDF79FFF0020FDF793
:1036A0009CFF3320FDF799FF0020FDF796FF442093
:1036B000FDF793FF0020FDF790FF5020FDF78DFFF1
:1036C0000020FDF78AFF6220FDF787FF0020FDF74D
:1036D00084FF7820FDF781FF0020FDF77EFF882022
:1036E000FDF77BFF0020FDF778FF9720FDF775FFC2
:1036F0000020FDF772FFA620FDF76FFF0020FDF709
:103700006CFFB720FDF769FF0020FDF766FFC220C0
:10371000FDF763FF0020FDF760FFC720FDF75DFFA9
:103720000020FDF75AFFD120FDF757FF0020FDF7DD
:1037300054FFD520FDF751FF0020FDF74EFFDD209F
:10374000FDF74BFF0020FDF748FFF320FDF745FF95
:103750000020FDF742FFE420FDF743FF0120FDF7C5
:103760003CFF0020FDF739FF0120FDF736FF002068
:10377000FDF733FF0220FDF730FF0020FDF72DFF9E
:103780002A20FDF72AFF0020FDF727FF3C20FDF748
:1037900024FF0020FDF721FF4B20FDF71EFF002036
:1037A000FDF71BFF5D20FDF718FF0020FDF715FF5B
:1037B0007420FDF712FF0020FDF70FFF8420FDF7B6
:1037C0000CFF0020FDF709FF9320FDF706FF002006
:1037D000FDF703FFA220FDF700FF0020FDF7FDFE2F
:1037E000B320FDF7FAFE0020FDF7F7FEBE20FDF73F
:1037F000F4FE0020FDF7F1FEC420FDF7EEFE0020F0
:10380000FDF7EBFECD20FDF7E8FE0020FDF7E5FE1D
:10381000D320FDF7E2FE0020FDF7DFFEDD20FDF7FF
:10382000DCFE0020FDF7D9FEF320FDF7D6FE0020D8
:10383000FDF7D3FEE520FDF7D4FE0020FDF7CDFE19
:103840000020FDF7CAFE0020FDF7C7FE0020FDF7AF
:10385000C4FE0220FDF7C1FE0020FDF7BEFE2920B8
:10386000FDF7BBFE0020FDF7B8FE3C20FDF7B5FEDE
:103870000020FDF7B2FE4B20FDF7AFFE0020FDF764
:10388000ACFE5D20FDF7A9FE0020FDF7A6FE74202A
:10389000FDF7A3FE0020FDF7A0FE8420FDF79DFEAE
:1038A0000020FDF79AFE9320FDF797FE0020FDF71C
:1038B00094FEA220FDF791FE0020FDF78EFEB320BE
:1038C000FDF78BFE0020FDF788FEBE20FDF785FE8C
:1038D0000020FDF782FEC420FDF77FFE0020FDF7EB
:1038E0007CFECD20FDF779FE0020FDF776FED3208B
:1038F000FDF773FE0020FDF770FEDC20FDF76DFE86
:103900000020FDF76AFEF320FDF767FE0020FDF7BB
:1039100064FEE620FDF765FE1120FDF75EFE002047
:10392000FDF75BFE3420FDF758FE0020FDF755FE45
:103930005620FDF752FE0020FDF74FFE7620FDF7E2
:103940004CFE0020FDF749FE7720FDF746FE0020E3
:10395000FDF743FE6620FDF740FE0020FDF73DFE2B
:103960008820FDF73AFE0020FDF737FE9920FDF78D
:1039700034FE0020FDF731FEBB20FDF72EFE0020B7
:10398000FDF72BFE9920FDF728FE0020FDF725FE10
:103990006620FDF722FE0020FDF71FFE5520FDF7F3
:1039A0001CFE0020FDF719FE5520FDF716FE002035
:1039B000FDF713FE4520FDF710FE0020FDF70DFE7C
:1039C0004320FDF70AFE0020FDF707FE4420FDF727
:1039D00004FE0020FDF701FEE720FDF702FE322085
:1039E000FDF7FBFD0020FDF7F8FD5520FDF7F5FD87
:1039F0000020FDF7F2FD7620FDF7EFFD0020FDF73A
:103A0000ECFD6620FDF7E9FD0020FDF7E6FD6720EF
:103A1000FDF7E3FD0020FDF7E0FD6720FDF7DDFD8C
:103A20000020FDF7DAFD8720FDF7D7FD0020FDF728
:103A3000D4FD9920FDF7D1FD0020FDF7CEFDBB2080
:103A4000FDF7CBFD0020FDF7C8FD9920FDF7C5FD72
:103A50000020FDF7C2FD7720FDF7BFFD0020FDF738
:103A6000BCFD4420FDF7B9FD0020FDF7B6FD562052
:103A7000FDF7B3FD0020FDF7B0FD2320FDF7ADFD00
:103A80000020FDF7AAFD3320FDF7A7FD0020FDF77C
:103A9000A4FD4520FDF7A1FD0020FDF79EFDE820D7
:103AA000FDF79FFD0020FDF798FD0020FDF795FD37
:103AB0009920FDF792FD0020FDF78FFD8720FDF78F
:103AC0008CFD0020FDF789FD8820FDF786FD002094
:103AD000FDF783FD7720FDF780FD0020FDF77DFDDC
:103AE0006620FDF77AFD0020FDF777FD8820FDF7C1
:103AF00074FD0020FDF771FDAA20FDF76EFD00208A
:103B0000FDF76BFDBB20FDF768FD0020FDF765FDAF
:103B10009920FDF762FD0020FDF75FFD6620FDF7AF
:103B20005CFD0020FDF759FD5520FDF756FD0020F6
:103B3000FDF753FD5520FDF750FD0020FDF74DFD2D
:103B40004420FDF74AFD0020FDF747FD4420FDF726
:103B500044FD0020FDF741FD5520FDF73EFD00200E
:103B6000FDF73BFDE920FDF73CFDAA20FDF735FD03
:103B70000020FDF732FD0020FDF72FFD0020FDF7AE
:103B80002CFD0020FDF72DFDAA20FDF726FDCF20FE
:103B9000FDF727FD0020FDF720FD0020FDF71DFDAE
:103BA0000020FDF71AFD0020FDF717FD0020FDF7AE
:103BB00014FD0020FDF711FD0020FDF70EFD002093
:103BC000FDF70BFD0020FDF708FD0020FDF705FDCA
:103BD0000020FDF702FD0020FDF7FFFC0020FDF7AF
:103BE000FCFC0020FDF7F9FC0020FDF7F6FC0020AE
:103BF000FDF7F3FC0020FDF7F0FCF020FDF7F1FCF1
:103C00000020FDF7EAFC5020FDF7E7FC0020FDF75F
:103C1000E4FC0020FDF7E1FC0020FDF7DEFCF320D2
:103C2000FDF7DFFC0020FDF7D8FCF920FDF7D9FCFB
:103C30000620FDF7D2FC1020FDF7CFFC2920FDF770
:103C4000CCFC0020FDF7C9FC3A20FDF7CAFC55204A
:103C5000FDF7C3FC1120FDF7C4FC642002F025FF32
:103C60002920FDF7BEFC3520FDF7BBFC0020FDF749
:103C7000B4FC5120FDF7B5FCFF20FDF7AEFC53204E
:103C8000FDF7AFFC2C20FDF7A8FC5520FDF7A9FCA3
:103C90008220FDF7A2FC2C20FDF7A3FC02F0E9B87E
:103CA000FE48808845F2105188427DD155214FF45D
:103CB0007040FDF78DFCAA214FF20100FDF788FC52
:103CC00052214FF20200FDF783FC08214FF203005E
:103CD000FDF77EFC01214FF20400FDF779FC0D2178
:103CE0004FF43040FDF774FC0D214BF20100FDF75D
:103CF0006FFC0D214BF20200FDF76AFC34214FF4FA
:103D00003640FDF765FC34214BF20160FDF760FCA5
:103D100034214BF20260FDF75BFC0D214FF4314082
:103D2000FDF756FC0D214BF20110FDF751FC0D2162
:103D30004BF20210FDF74CFC34214FF43740FDF7F5
:103D400047FC34214BF20170FDF742FC34214BF269
:103D50000270FDF73DFC00214FF43240FDF738FCC6
:103D600000214BF20120FDF733FC00214BF2022031
:103D7000FDF72EFC24214FF43840FDF729FC2421C7
:103D80004BF60100FDF724FC24214BF60200FDF761
:103D90001FFC01214FF43F40FDF71AFC0F214FF4A7
:103DA0003340FDF715FC00E0FDE30F214BF201303D
:103DB000FDF70EFC0F214BF20230FDF709FC342118
:103DC0004FF43940FDF704FC34214BF60110FDF7A8
:103DD000FFFB34214BF60210FDF7FAFB08214FF4EC
:103DE0003540FDF7F5FB08214BF20150FDF7F0FBE4
:103DF00008214BF20250FDF7EBFB03214FF4424048
:103E0000FDF7E6FB24214FF43A40FDF7E1FB2421C6
:103E10004BF60120FDF7DCFB24214BF60220FDF7D9
:103E2000D7FB00214FF43C40FDF7D2FB78214BF645
:103E30000140FDF7CDFB00214BF60240FDF7C8FB2A
:103E400000214FF43D40FDF7C3FB78214BF60150B4
:103E5000FDF7BEFB00214BF60250FDF7B9FB002138
:103E60004FF43E40FDF7B4FB64214BF60160FDF7D3
:103E7000AFFB00214FF45140FDF7AAFB33214DF277
:103E80000110FDF7A5FB00214DF20210FDF7A0FB8C
:103E900034214DF20310FDF79BFB00214DF204107D
:103EA000FDF796FB3A214DF20510FDF791FB00213D
:103EB0004DF20610FDF78CFB4A214DF20710FDF77D
:103EC00087FB00214DF20810FDF782FB5C214DF2CB
:103ED0000910FDF77DFB00214DF20A10FDF778FB7C
:103EE00081214DF20B10FDF773FB00214DF20C10F8
:103EF000FDF76EFBA6214DF20D10FDF769FB0021C9
:103F00004DF20E10FDF764FBE5214DF20F10FDF7A9
:103F10005FFB01214DF21010FDF75AFB13214DF20A
:103F20001110FDF755FB01214DF21210FDF750FB6A
:103F300054214DF21310FDF74BFB01214DF21410EB
:103F4000FDF746FB82214DF21510FDF741FB0121E3
:103F50004DF21610FDF73CFBCA214DF21710FDF78C
:103F600037FB02214DF21810FDF732FB00214DF214
:103F70001910FDF72DFB02214DF21A10FDF728FB59
:103F800001214DF21B10FDF723FB02214DF21C1005
:103F9000FDF71EFB34214DF21D10FDF719FB022128
:103FA0004DF21E10FDF714FB67214DF21F10FDF7B7
:103FB0000FFB02214DF22010FDF70AFB84214DF288
:103FC0002110FDF705FB02214DF22210FDF700FB49
:103FD000A4214DF22310FDF7FBFA02214DF224102B
:103FE000FDF7F6FAB7214DF22510FDF7F1FA02219F
:103FF0004DF22610FDF7ECFACF214DF22710FDF718
:10400000E7FA02214DF22810FDF7E2FADE214DF227
:104010002910FDF7DDFA02214DF22A10FDF7D8FA3A
:10402000F2214DF22B10FDF7D3FA02214DF22C10A4
:10403000FDF7CEFAFE214DF22D10FDF7C9FA03214E
:104040004DF22E10FDF7C4FA10214DF22F10FDF79E
:10405000BFFA03214DF23010FDF7BAFA33214DF2C9
:104060003110FDF7B5FA03214DF23210FDF7B0FA29
:104070006D214DF23310FDF7ABFA00214FF45240A1
:10408000FDF7A6FA33214DF20120FDF7A1FA002138
:104090004DF20220FDF79CFA342101E028020020B5
:1040A0004DF20320FDF794FA00214DF20420FDF7B4
:1040B0008FFA3A214DF20520FDF78AFA00214DF2E0
:1040C0000620FDF785FA4A214DF20720FDF780FA18
:1040D00000214DF20820FDF77BFA5C214DF209200A
:1040E000FDF776FA00214DF20A20FDF771FA8121E1
:1040F0004DF20B20FDF76CFA00214DF20C20FDF77C
:1041000067FAA6214DF20D20FDF762FA00214DF26B
:104110000E20FDF75DFAE5214DF20F20FDF758FA6C
:1041200001214DF21020FDF753FA13214DF2112019
:10413000FDF74EFA01214DF21220FDF749FA542104
:104140004DF21320FDF744FA01214DF21420FDF742
:104150003FFA82214DF21520FDF73AFA01214DF286
:104160001620FDF735FACA214DF21720FDF730FA77
:1041700002214DF21820FDF72BFA00214DF21920F3
:10418000FDF726FA02214DF21A20FDF721FA01214E
:104190004DF21B20FDF71CFA02214DF21C20FDF709
:1041A00017FA34214DF21D20FDF712FA02214DF2CB
:1041B0001E20FDF70DFA67214DF21F20FDF708FACA
:1041C00002214DF22020FDF703FA84214DF2212037
:1041D000FDF7FEF902214DF22220FDF7F9F9A421A5
:1041E0004DF22320FDF7F4F902214DF22420FDF7D2
:1041F000EFF9B7214DF22520FDF7EAF902214DF242
:104200002620FDF7E5F9CF214DF22720FDF7E0F953
:1042100002214DF22820FDF7DBF9DE214DF22920A5
:10422000FDF7D6F902214DF22A20FDF7D1F9F2214E
:104230004DF22B20FDF7CCF902214DF22C20FDF799
:10424000C7F9FE214DF22D20FDF7C2F903214DF2F1
:104250002E20FDF7BDF910214DF22F20FDF7B8F902
:1042600003214DF23020FDF7B3F933214DF2312017
:10427000FDF7AEF903214DF23220FDF7A9F96D21CA
:104280004DF23320FDF7A4F900214FF45340FDF720
:104290009FF933214DF20130FDF79AF900214DF2DB
:1042A0000230FDF795F934214DF20330FDF790F916
:1042B00000214DF20430FDF78BF93A214DF2053023
:1042C000FDF786F900214DF20630FDF781F94A210C
:1042D0004DF20730FDF77CF900214DF20830FDF773
:1042E00077F95C214DF20930FDF772F900214DF2AA
:1042F0000A30FDF76DF981214DF20B30FDF768F9B9
:1043000000214DF20C30FDF763F9A6214DF20D307E
:10431000FDF75EF900214DF20E30FDF759F9E52168
:104320004DF20F30FDF754F901214DF21030FDF739
:104330004FF913214DF21130FDF74AF901214DF2E9
:104340001230FDF745F954214DF21330FDF740F9D5
:1043500001214DF21430FDF73BF982214DF2153069
:10436000FDF736F901214DF21630FDF731F9CA217A
:104370004DF21730FDF72CF902214DF21830FDF700
:1043800027F900214DF21930FDF722F902214DF2F3
:104390001A30FDF71DF901214DF21B30FDF718F918
:1043A00002214DF21C30FDF713F934214DF21D307E
:1043B000FDF70EF902214DF21E30FDF709F96721D4
:1043C0004DF21F30FDF704F902214DF22030FDF7C8
:1043D000FFF884214DF22130FDF7FAF802214DF269
:1043E0002230FDF7F5F8A4214DF22330FDF7F0F867
:1043F00002214DF22430FDF7EBF8B7214DF22530C4
:10440000FDF7E6F802214DF22630FDF7E1F8CF2165
:104410004DF22730FDF7DCF802214DF22830FDF790
:10442000D7F8DE214DF22930FDF7D2F802214DF206
:104430002A30FDF7CDF8F2214DF22B30FDF7C8F808
:1044400002214DF22C30FDF7C3F8FE214DF22D3044
:10445000FDF7BEF803214DF22E30FDF7B9F810211B
:104460004DF22F30FDF7B4F803214DF23030FDF757
:10447000AFF833214DF23130FDF7AAF803214DF2A8
:104480003230FDF7A5F86D214DF23330FDF7A0F87D
:1044900000214FF45440FDF79BF833214DF20140C9
:1044A000FDF796F800214DF20240FDF791F8342116
:1044B0004DF20340FDF78CF800214DF20440FDF76A
:1044C00087F83A214DF20540FDF782F800214DF2C0
:1044D0000640FDF77DF84A214DF20740FDF778F8D8
:1044E00000214DF20840FDF773F85C214DF20940C0
:1044F000FDF76EF800214DF20A40FDF769F88121C1
:104500004DF20B40FDF764F800214DF20C40FDF731
:104510005FF8A6214DF20D40FDF75AF800214DF24B
:104520000E40FDF755F8E5214DF20F40FDF750F82C
:1045300001214DF21040FDF74BF813214DF21140CF
:10454000FDF746F801214DF21240FDF741F85421E4
:104550004DF21340FDF73CF801214DF21440FDF7F8
:1045600037F882214DF21540FDF732F801214DF266
:104570001640FDF72DF8CA214DF21740FDF728F837
:1045800002214DF21840FDF723F800214DF21940A9
:10459000FDF71EF802214DF21A40FDF719F801212E
:1045A0004DF21B4000E006E3FDF712F802214DF248
:1045B0001C40FDF70DF834214DF21D40FDF708F8C1
:1045C00002214DF21E40FDF703F867214DF21F4016
:1045D000FCF7FEFF02214DF22040FCF7F9FF842199
:1045E0004DF22140FCF7F4FF02214DF22240FCF78E
:1045F000EFFFA4214DF22340FCF7EAFF02214DF228
:104600002440FCF7E5FFB7214DF22540FCF7E0FF21
:1046100002214DF22640FCF7DBFFCF214DF227406F
:10462000FCF7D6FF02214DF22840FCF7D1FFDE2136
:104630004DF22940FCF7CCFF02214DF22A40FCF755
:10464000C7FFF2214DF22B40FCF7C2FF02214DF2D1
:104650002C40FCF7BDFFFE214DF22D40FCF7B8FFCA
:1046600003214DF22E40FCF7B3FF10214DF22F40F5
:10467000FCF7AEFF03214DF23040FCF7A9FF3321D8
:104680004DF23140FCF7A4FF03214DF23240FCF71C
:104690009FFF6D214DF23340FCF79AFF00214FF44C
:1046A0005540FCF795FF33214DF20150FCF790FF88
:1046B00000214DF20250FCF78BFF34214DF20350E4
:1046C000FCF786FF00214DF20450FCF781FF3A21F0
:1046D0004DF20550FCF77CFF00214DF20650FCF72F
:1046E00077FF4A214DF20750FCF772FF00214DF28F
:1046F0000850FCF76DFF5C214DF20950FCF768FF94
:1047000000214DF20A50FCF763FF81214DF20B505E
:10471000FCF75EFF00214DF20C50FCF759FFA6217B
:104720004DF20D50FCF754FF00214DF20E50FCF7F6
:104730004FFFE5214DF20F50FCF74AFF01214DF2EA
:104740001050FCF745FF13214DF21150FCF740FFCC
:1047500001214DF21250FCF73BFF54214DF2135052
:10476000FCF736FF01214DF21450FCF731FF822196
:104770004DF21550FCF72CFF01214DF21650FCF7BD
:1047800027FFCA214DF21750FCF722FF02214DF2FC
:104790001850FCF71DFF00214DF21950FCF718FFCF
:1047A00002214DF21A50FCF713FF01214DF21B506C
:1047B000FCF70EFF02214DF21C50FCF709FF3421DB
:1047C0004DF21D50FCF704FF02214DF21E50FCF784
:1047D000FFFE67214DF21F50FCF7FAFE02214DF259
:1047E0002050FCF7F5FE84214DF22150FCF7F0FE3D
:1047F00002214DF22250FCF7EBFEA4214DF2235092
:10480000FCF7E6FE02214DF22450FCF7E1FEB72151
:104810004DF22550FCF7DCFE02214DF22650FCF74C
:10482000D7FECF214DF22750FCF7D2FE02214DF2E8
:104830002850FCF7CDFEDE214DF22950FCF7C8FED2
:1048400002214DF22A50FCF7C3FEF2214DF22B500B
:10485000FCF7BEFE02214DF22C50FCF7B9FEFE2102
:104860004DF22D50FCF7B4FE03214DF22E50FCF713
:10487000AFFE10214DF22F50FCF7AAFE03214DF29E
:104880003050FCF7A5FE33214DF23150FCF7A0FE6D
:1048900003214DF23250FCF79BFE6D214DF2335057
:1048A000FCF796FE00214FF45640FCF791FE3321B1
:1048B0004DF20160FCF78CFE00214DF20260FCF726
:1048C00087FE34214DF20360FCF782FE00214DF299
:1048D0000460FCF77DFE3A214DF20560FCF778FE9E
:1048E00000214DF20660FCF773FE4A214DF207608D
:1048F000FCF76EFE00214DF20860FCF769FE5C21BA
:104900004DF20960FCF764FE00214DF20A60FCF7ED
:104910005FFE81214DF20B60FCF75AFE00214DF243
:104920000C60FCF755FEA6214DF20D60FCF750FE21
:1049300000214DF20E60FCF74BFEE5214DF20F60B9
:10494000FCF746FE01214DF21060FCF741FE1321F9
:104950004DF21160FCF73CFE01214DF21260FCF7B4
:1049600037FE54214DF21360FCF732FE01214DF267
:104970001460FCF72DFE82214DF21560FCF728FE35
:1049800001214DF21660FCF723FECA214DF217609B
:10499000FCF71EFE02214DF21860FCF719FE002103
:1049A0004DF21960FCF714FE02214DF21A60FCF77B
:1049B0000FFE01214DF21B60FCF70AFE02214DF2B1
:1049C0001C60FCF705FE34214DF21D60FCF700FE73
:1049D00002214DF21E60FCF7FBFD67214DF21F60C6
:1049E000FCF7F6FD02214DF22060FCF7F1FD842179
:1049F0004DF22160FCF7ECFD02214DF22260FCF744
:104A0000E7FDA4214DF22360FCF7E2FD02214DF207
:104A10002460FCF7DDFDB7214DF22560FCF7D8FDE1
:104A200002214DF22660FCF7D3FDCF214DF2276025
:104A3000FCF7CEFD02214DF22860FCF7C9FDDE2116
:104A40004DF22960FCF7C4FD02214DF22A60FCF70B
:104A5000BFFDF2214DF22B60FCF7BAFD02214DF2B1
:104A60002C60FCF7B5FDFE214DF22D60FCF7B0FD8A
:104A700003214DF22E60FCF7ABFD10214DF22F60AB
:104A8000FCF7A6FD03214DF23060FCF7A1FD3321B8
:104A90004DF23160FCF79CFD03214DF23260FCF7D2
:104AA00097FD6D214DF23360FCF792FD55214FF4D7
:104AB0007040FCF78DFDAA214FF20100FCF788FD44
:104AC00052214FF20200FCF783FD08214FF2030050
:104AD000FCF77EFD00214FF20400FCF779FDCC21AC
:104AE0004FF43140FCF774FD00214BF20110FCF74C
:104AF0006FFD05214FF43640FCF76AFD70214FF43D
:104B00003740FCF765FD70214BF20170FCF760FD4A
:104B100001214FF43840FCF75BFD03214BF6010007
:104B2000FCF756FD03214BF60200FCF751FD032173
:104B30004BF60300FCF74CFD02214FF43C40FCF720
:104B400047FD00214BF60140FCF742FD00214BF6EA
:104B50000240FCF73DFDD0214FF44940FCF738FD01
:104B600002214CF60110FCF733FD50214CF60210E7
:104B7000FCF72EFD50214CF60310FCF729FD5021C7
:104B80004CF60410FCF724FD00214FF45450FCF7C0
:104B90001FFD55214FF46850FCF71AFD4FF4885063
:104BA000FCF71FFD782001F05CFF4FF42450FCF768
:104BB00018FD01F05EB9FE48808849F2253188422F
:104BC0007ED147F6F001E520FCF702FD4FF480713D
:104BD0000120FCF7FDFC4FF4E0610220FCF7F8FC3B
:104BE00041F230010320FCF7F3FC00210420FCF724
:104BF000EFFC40F202210820FCF7EAFC002109202A
:104C0000FCF7E6FC00210A20FCF7E2FC00210C2066
:104C1000FCF7DEFC00210D20FCF7DAFC00210F2060
:104C2000FCF7D6FC00211020FCF7D2FC0721112054
:104C3000FCF7CEFC00211220FCF7CAFC0021132057
:104C4000FCF7C6FC00210720FCF7C2FC41F2906192
:104C50001020FCF7BDFC40F227211120FCF7B8FC26
:104C60009D211220FCF7B4FC4FF4C8511320FCF72F
:104C7000AFFC25212920FCF7ABFC0D212B20FCF7F4
:104C8000A7FC07213020FCF7A3FC40F203313120C0
:104C9000FCF79EFC03213220FCF79AFC40F206212F
:104CA0003520FCF795FC08213620FCF791FC40F2FA
:104CB00006413720FCF78CFC4FF44171382000E0AE
:104CC00057E0FCF785FC07213920FCF781FC40F216
:104CD00002613C20FCF77CFC08213D20FCF778FCBD
:104CE00000215020FCF774FCEF215120FCF770FCF0
:104CF00000215220FCF76CFC40F23F115320FCF7DE
:104D000067FC4FF427416020FCF762FC0121612021
:104D1000FCF75EFC00216A20FCF75AFC0021802091
:104D2000FCF756FC00218120FCF752FC0021822078
:104D3000FCF74EFC00218320FCF74AFC0021842074
:104D4000FCF746FC00218520FCF742FC1021902056
:104D5000FCF73EFC4FF4C0619220FCF739FC40F2B6
:104D600033110720FCF734FC22210020FCF730FC33
:104D70001FE78F48808849F2283188427ED141F26E
:104D80008F01EC20FCF724FC41F23421EF20FCF7EA
:104D90001FFC4FF480710120FCF71AFC4FF4E06116
:104DA0000220FCF715FC41F230010320FCF710FC57
:104DB00000210420FCF70CFC40F202210820FCF743
:104DC00007FC00210920FCF703FC00210A20FCF766
:104DD000FFFB01210C20FCF7FBFB00210D20FCF761
:104DE000F7FB00210F20FCF7F3FB00211020FCF75C
:104DF000EFFB07211120FCF7EBFB00211220FCF751
:104E0000E7FB00211320FCF7E3FB01210720FCF75F
:104E1000DFFB322001F049FE41F290411020FCF707
:104E2000D7FB40F227211120FCF7D2FB322001F002
:104E30003CFE8A211220FCF7CBFB322001F035FE2C
:104E40004FF4D0511320FCF7C3FB06212920FCF7B7
:104E5000BFFB0D212B20FCF7BBFB322001F025FE10
:104E600000212020FCF7B4FB00212120FCF7B0FB3F
:104E7000322001F01AFE0021302000E074E0FCF73F
:104E8000A7FB40F204613120FCF7A2FB40F20531A0
:104E90003220FCF79DFB00213520FCF799FB40F602
:104EA00009413620FCF794FB4FF401713720FCF7E1
:104EB0008FFB40F201313820FCF78AFB40F207718A
:104EC0003920FCF785FB00213C20FCF781FB40F6F4
:104ED0000A213D20FCF77CFB322001F0E6FD002199
:104EE0005020FCF775FBEF215120FCF771FB0021EE
:104EF0005220FCF76DFB40F23F115320FCF768FB9A
:104F00004FF427416020FCF763FB01216120FCF78F
:104F10005FFB00216A20FCF75BFB00218020FCF78F
:104F200057FB00218120FCF753FB00218220FCF776
:104F30004FFB00218320FCF74BFB00218420FCF772
:104F400047FB00218520FCF743FB10219020FCF754
:104F50003FFB4FF4C0619220FCF73AFB40F2331163
:104F60000720FCF735FB24E61148808849F2203100
:104F700088427DD100210846FCF72AFB4FF480715E
:104F80000120FCF725FB4FF4E0610220FCF720FB39
:104F900041F230010320FCF71BFB00210420FCF749
:104FA00017FB40F202210820FCF712FB002101E070
:104FB000280200200920FCF70BFB00210A20FCF747
:104FC00007FB01210C20FCF703FB00210D20FCF75F
:104FD000FFFA00210F20FCF7FBFA322001F065FDFB
:104FE00040F201110720FCF7F3FA322001F05DFDD9
:104FF0004FF486511020FCF7EBFA07211120FCF743
:10500000E7FA4FF488711220FCF7E2FA4FF43061AE
:105010001320FCF7DDFA00212920FCF7D9FA44F22D
:1050200010012B20FCF7D4FA00215020FCF7D0FA15
:10503000EF215120FCF7CCFA00215220FCF7C8FAEE
:1050400040F23F115320FCF7C3FA4FF41C5160208B
:10505000FCF7BEFA01216120FCF7BAFA00216A20B0
:10506000FCF7B6FA00218020FCF7B2FA002100E03C
:1050700031E08120FCF7ACFA00218220FCF7A8FA8D
:1050800000218320FCF7A4FA00218420FCF7A0FA79
:1050900000218520FCF79CFA10219020FCF798FA5B
:1050A00000219220FCF794FA01219320FCF790FA5A
:1050B0004FF488719520FCF78BFA00219720FCF7BC
:1050C00087FA00219820FCF783FA40F27311072039
:1050D000FCF77EFA6DE5FE48808849F2313188425E
:1050E0007DD141F21401E720FCF772FA4FF4807190
:1050F0000120FCF76DFA4FF400710220FCF768FA0A
:1051000041F238010320FCF763FA40F20221082043
:10511000FCF75EFA00210920FCF75AFA00210A2068
:10512000FCF756FA00210C20FCF752FA00210D2062
:10513000FCF74EFA00210F20FCF74AFA002110205C
:10514000FCF746FA07211120FCF742FA0021122051
:10515000FCF73EFA00211320FCF73AFAC82001F0D0
:10516000A4FC41F290611020FCF732FA40F22721B2
:105170001120FCF72DFA322001F097FC0C211220AF
:10518000FCF726FA322001F090FC4FF40061132066
:10519000FCF71EFA11212920FCF71AFA0B212B200B
:1051A000FCF716FA322001F080FC00212020FCF7E9
:1051B0000FFA40F23F112120FCF70AFA00213020BB
:1051C000FCF706FA4FF483713120FCF701FA002155
:1051D0003220FCF7FDF94FF40171352000E064E066
:1051E000FCF7F6F941F20A613620FCF7F1F940F2DA
:1051F00007713720FCF7ECF94FF483713820FCF786
:10520000E7F940F207713920FCF7E2F940F2024178
:105210003C20FCF7DDF940F60F413D20FCF7D8F9C2
:1052200000215020FCF7D4F9EF215120FCF7D0F9F0
:1052300000215220FCF7CCF940F23F115320FCF73B
:10524000C7F94FF41C516020FCF7C2F9012161201D
:10525000FCF7BEF900216A20FCF7BAF90021802092
:10526000FCF7B6F900218120FCF7B2F90021822079
:10527000FCF7AEF900218320FCF7AAF90021842075
:10528000FCF7A6F900218520FCF7A2F91021902057
:10529000FCF79EF94FF4C0619220FCF799F940F2B7
:1052A00033110720FCF794F983E48948808845F29C
:1052B000084188427ED14FF480710120FCF788F9C3
:1052C0004FF4E0610220FCF783F941F23001032042
:1052D000FCF77EF900210420FCF77AF940F207215F
:1052E0000820FCF775F900210920FCF771F900216D
:1052F0000A20FCF76DF900210C20FCF769F9002168
:105300000D20FCF765F900210F20FCF761F914204E
:1053100001F0CBFB41F2B0611020FCF759F90121FB
:105320001120FCF755F901211720FCF751F94FF432
:105330009C711220FCF74CF94FF400611320FCF72C
:1053400047F909212920FCF743F909212A20FCF714
:105350003FF90021A420FCF73BF900215020FCF785
:1053600037F9EF215120FCF733F900215220FCF7E7
:105370002FF940F23F115320FCF72AF94FF41C514A
:105380006020FCF725F901216120FCF721F90021BB
:105390006A20FCF71DF900218020FCF719F9002193
:1053A0008120FCF715F900218220FCF711F900217A
:1053B000832000E023E0FCF70BF900218420FCF7B8
:1053C00007F900218520FCF703F913219020FCF751
:1053D000FFF800219220FCF7FBF803219320FCF753
:1053E000F7F84FF488719520FCF7F2F840F273114A
:1053F0000720FCF7EDF8322001F057FBB8E4344801
:10540000808841F2055188427ED100210720FCF7B7
:10541000DFF8322001F049FB4FF48E711220FCF7C7
:10542000D7F80121A420FCF7D3F80F210820FCF7BE
:10543000CFF808210A20FCF7CBF808210D20FCF753
:10544000C7F840F207713020FCF7C2F8072131207D
:10545000FCF7BEF840F203613220FCF7B9F84FF4D4
:10546000E0613320FCF7B4F840F202213420FCF76D
:10547000AFF802213520FCF7ABF841F60F7136206A
:10548000FCF7A6F840F207713720FCF7A1F80021DD
:105490003820FCF79DF800213920FCF799F840F2FC
:1054A00007713A20FCF794F800213B20FCF790F8B4
:1054B00007213C20FCF78CF800213D20FCF788F800
:1054C000322001F0F2FA01210720FCF781F801E017
:1054D0002802002001211720FCF77AF8322001F081
:1054E000E4FA4FF4BD511020FCF772F840F2172196
:1054F0001120FCF76DF84FF48F711220FCF768F85B
:105500004FF47061132000E097E0FCF761F8002190
:105510002A20FCF75DF80A212920FCF759F84FF4FE
:105520009F711220FCF754F800215020FCF750F82E
:10553000EF215120FCF74CF800215220FCF748F8ED
:1055400040F23F115320FCF743F84FF41C51602008
:10555000FCF73EF801216120FCF73AF800216A20AF
:10556000FCF736F800218020FCF732F8002181207A
:10557000FCF72EF800218220FCF72AF80021832076
:10558000FCF726F800218420FCF722F80021852072
:10559000FCF71EF813219020FCF71AF84FF4407125
:1055A0009220FCF715F805219320FCF711F8002153
:1055B0009520FCF70DF800219720FCF709F8002151
:1055C0009820FCF705F84FF480710120FCF700F8F3
:1055D0004FF4E0610220FBF7FBFF41F238010320AA
:1055E000FBF7F6FF00210420FBF7F2FF00210C205F
:1055F000FBF7EEFF00210F20FBF7EAFF0021202040
:10560000FBF7E6FF00212120FBF7E2FF2121072025
:10561000FBF7DEFF142001F048FA61210720FBF7B9
:10562000D7FF142001F041FA40F273110720FBF775
:10563000CFFF142001F039FA95E4FE4880884BF240
:10564000055188427ED100210846FBF7C1FF0021A9
:105650000846FBF7BDFF00210846FBF7B9FF002114
:105660000846FBF7B5FF0121A420FBF7B1FF14208A
:1056700001F01BFA4FF41C516020FBF7A9FF40F228
:1056800002210820FBF7A4FF4FF405713020FBF73F
:105690009FFF43F215713120FBF79AFF40F204613E
:1056A0003220FBF795FF40F616613320FBF790FFA1
:1056B00042F211213420FBF78BFF4FF4A851352023
:1056C000FBF786FF48F207513620FBF781FF41F2D6
:1056D00007413720FBF77CFF41F203413820FBF7FD
:1056E00077FF20213920FBF773FF1A219020FBF769
:1056F0006FFF00211020FBF76BFF07211120FBF744
:1057000067FF00211220FBF763FF00211320FBF746
:105710005FFF142001F0C9F94FF4E6611020FBF798
:1057200057FF40F237111120FBF752FF142001F010
:10573000BCF94FF4DC711220FBF74AFF142001F092
:10574000B4F900E083E04FF470611320FBF740FFF1
:1057500080212A20FBF73CFF48212920FBF738FF56
:10576000142001F0A2F94FF480710120FBF730FF03
:105770004FF4E0610220FBF72BFF41F238010320D8
:10578000FBF726FF40F202210820FBF721FF002152
:105790000A20FBF71DFF00210C20FBF719FF002159
:1057A0000D20FBF715FF30210E20FBF711FF002124
:1057B0005020FBF70DFFEF215120FBF709FF0021DF
:1057C0005220FBF705FF40F23F115320FBF700FF8B
:1057D0004FF41C516020FBF7FBFE01216120FBF719
:1057E000F7FE00216A20FBF7F3FE11219020FBF762
:1057F000EFFE4FF4C0619220FBF7EAFE40F2024157
:105800009320FBF7E5FE02219420FBF7E1FE142034
:1058100001F04BF901210720FBF7DAFE142001F01B
:1058200044F961210720FBF7D3FE40F273110720F2
:10583000FBF7CEFE00212020FBF7CAFE002121202D
:10584000FBF7C6FE22210020FBF7C2FE11E37948D8
:1058500080884CF2055188427ED100210846FBF732
:10586000B7FE00210846FBF7B3FE142001F01DF936
:1058700000210846FBF7ACFE00210846FBF7A8FE16
:1058800000210846FBF7A4FE00210846FBF7A0FE16
:105890000121A420FBF79CFE142001F006F94FF42F
:1058A0001C516020FBF794FE40F606010820FBF730
:1058B0008FFE40F203713020FBF78AFE0121312078
:1058C000FBF786FE04213220FBF782FE4FF4817144
:1058D0003320FBF77DFE4FF440713420FBF778FE58
:1058E00040F203113520FBF773FE1F213620FBF732
:1058F0006FFE40F203713720FBF76AFE012138206A
:10590000FBF766FE04213920FBF762FE152190208B
:10591000FBF75EFE4FF482611020FBF759FE40F268
:1059200047211120FBF754FE4FF4DE711220FBF7E4
:105930004FFE4FF460611320FBF74AFE782001F020
:10594000B4F84FF480710120FBF742FE4FF4007170
:105950000220FBF73DFE00E050E041F23001032061
:10596000FBF736FE08210A20FBF732FE00210C204F
:10597000FBF72EFE20210E20FBF72AFE00210F2030
:10598000FBF726FE00212020FBF722FE002121202C
:10599000FBF71EFE3D212A20FBF71AFE142001F022
:1059A00084F82D212920FBF713FE00215020FBF75E
:1059B0000FFE4DF2EF015120FBF70AFE00215220AD
:1059C000FBF706FE40F23F115320FBF701FE0021DA
:1059D0006120FBF7FDFD00216A20FBF7F9FD4FF484
:1059E00040719220FBF7F4FD05219320FBF7F0FDB9
:1059F0004FF480710720FBF7EBFD3AE20D488088F9
:105A000044F2315188427CD101210020FBF7E0FDB6
:105A10000A2001F04AF841F228611020FBF7D8FD76
:105A20000E211220FBF7D4FD40F639211320FBF79D
:105A3000CFFD01E0280200200A2001F036F84021C5
:105A40001120FBF7C5FD50211520FBF7C1FD0A20F1
:105A500001F02BF81E211220FBF7BAFD0A2001F0FD
:105A600024F84FF4B1511020FBF7B2FD42F6392172
:105A70001320FBF7ADFD0A2001F017F84FF48071F9
:105A80000120FBF7A5FD4FF440710220FBF7A0FDBC
:105A900041F238010320FBF79BFD40F20221082070
:105AA000FBF796FD08210A20FBF792FD002130202C
:105AB000FBF78EFD40F202413120FBF789FD4FF4E8
:105AC00083713220FBF784FD40F203513320FBF752
:105AD0007FFD4FF482713420FBF77AFD40F20131F3
